:020000040000FA
:100000006200B42883168100831208006300861200
:100010000800223086000620223086000620283084
:100020008600062008002030860006202630860044
:100030000620080094002030860006201408860060
:100040000620080024308600062020308600062086
:100050000800283086000620203086000620080090
:100060002130860006202830860006200800213036
:10007000860006202C3086000620080093002130E0
:10008000860006201308860006200800203086001F
:100090000620213086000620080020308600062039
:1000A00022308600062008008600062020308600C8
:1000B000062008009000F039033E9100110E8600E2
:1000C000062010080F39303E860006200800222046
:1000D00008305A200C305A200A305A2009305A2051
:1000E00009305A200A305A200C305A2008305A2041
:1000F00045305A206E305A2074305A2065305A20CC
:1001000072305A2020305A204D305A2065305A2003
:1001100073305A2073305A2061305A2067305A2089
:1001200065305A2000305A200800630063006300E5
:10013000630063000800120A92005A2020303E201B
:100140000617952006130800120392005A2020304B
:100150003E20061795200613080024303E208617FF
:10016000630086139520080085011F306500860115
:10017000003066000030022009202B301A201320A6
:1001800067202830542078202F301A2041309200E8
:100190002C3054206300051CA420851C9B20051DC9
:0401A000AD20CA289C
:00000001FF
